{
  "abi": [
    {
      "inputs": [
        {
          "internalType": "address",
          "name": "_priceFeedAdress",
          "type": "address"
        }
      ],
      "stateMutability": "nonpayable",
      "type": "constructor"
    },
    {
      "inputs": [],
      "name": "EndLottery",
      "outputs": [],
      "stateMutability": "nonpayable",
      "type": "function"
    },
    {
      "inputs": [],
      "name": "Enter",
      "outputs": [],
      "stateMutability": "nonpayable",
      "type": "function"
    },
    {
      "inputs": [],
      "name": "GetEntrenceFee",
      "outputs": [
        {
          "internalType": "uint256",
          "name": "",
          "type": "uint256"
        }
      ],
      "stateMutability": "view",
      "type": "function"
    },
    {
      "inputs": [],
      "name": "StartLottery",
      "outputs": [],
      "stateMutability": "nonpayable",
      "type": "function"
    },
    {
      "inputs": [
        {
          "internalType": "uint256",
          "name": "",
          "type": "uint256"
        }
      ],
      "name": "players",
      "outputs": [
        {
          "internalType": "address payable",
          "name": "",
          "type": "address"
        }
      ],
      "stateMutability": "view",
      "type": "function"
    },
    {
      "inputs": [],
      "name": "usdEntryFee",
      "outputs": [
        {
          "internalType": "uint256",
          "name": "",
          "type": "uint256"
        }
      ],
      "stateMutability": "view",
      "type": "function"
    }
  ],
  "bytecode": "608060405234801561001057600080fd5b506040516102983803806102988339818101604052602081101561003357600080fd5b50516802b5e3af16b1880000600155600280546001600160a01b0319166001600160a01b03909216919091179055610228806100706000396000f3fe608060405234801561001057600080fd5b50600436106100625760003560e01c80631097e5791461006757806343a3db811461007157806366c446081461007957806388ab139a14610093578063b04a3f1c14610071578063f71d96cb1461009b575b600080fd5b61006f6100d4565b005b61006f610115565b610081610117565b60408051918252519081900360200190f35b6100816101c5565b6100b8600480360360208110156100b157600080fd5b50356101cb565b604080516001600160a01b039092168252519081900360200190f35b600080546001810182559080527f290decd9548b62a8d60345a988386fc84ba6bc95484008f6362f93160ef3e5630180546001600160a01b03191633179055565b565b600080600260009054906101000a90046001600160a01b03166001600160a01b031663feaf968c6040518163ffffffff1660e01b815260040160a06040518083038186803b15801561016857600080fd5b505afa15801561017c573d6000803e3d6000fd5b505050506040513d60a081101561019257600080fd5b50602001516001549091506402540be4008202906000908290670de0b6b3a764000002816101bc57fe5b04935050505090565b60015481565b600081815481106101d857fe5b6000918252602090912001546001600160a01b031690508156fea26469706673582212200a6ffc7b4167d0b702df94c7a3a656c519be56d75b413224fecd09f06959889564736f6c634300060c0033",
  "bytecodeSha1": "3bc706f5e485d66ba6bdce927f24be95494ee461",
  "compiler": {
    "evm_version": "istanbul",
    "optimizer": {
      "enabled": true,
      "runs": 200
    },
    "version": "0.6.12+commit.27d51765"
  },
  "contractName": "Lottery",
  "language": "Solidity",
  "natspec": {
    "kind": "dev",
    "methods": {},
    "version": 1
  },
  "opcodes": "PUSH1 0x80 PUSH1 0x40 MSTORE CALLVALUE DUP1 ISZERO PUSH2 0x10 JUMPI PUSH1 0x0 DUP1 REVERT JUMPDEST POP PUSH1 0x4 CALLDATASIZE LT PUSH2 0x62 JUMPI PUSH1 0x0 CALLDATALOAD PUSH1 0xE0 SHR DUP1 PUSH4 0x1097E579 EQ PUSH2 0x67 JUMPI DUP1 PUSH4 0x43A3DB81 EQ PUSH2 0x71 JUMPI DUP1 PUSH4 0x66C44608 EQ PUSH2 0x79 JUMPI DUP1 PUSH4 0x88AB139A EQ PUSH2 0x93 JUMPI DUP1 PUSH4 0xB04A3F1C EQ PUSH2 0x71 JUMPI DUP1 PUSH4 0xF71D96CB EQ PUSH2 0x9B JUMPI JUMPDEST PUSH1 0x0 DUP1 REVERT JUMPDEST PUSH2 0x6F PUSH2 0xD4 JUMP JUMPDEST STOP JUMPDEST PUSH2 0x6F PUSH2 0x115 JUMP JUMPDEST PUSH2 0x81 PUSH2 0x117 JUMP JUMPDEST PUSH1 0x40 DUP1 MLOAD SWAP2 DUP3 MSTORE MLOAD SWAP1 DUP2 SWAP1 SUB PUSH1 0x20 ADD SWAP1 RETURN JUMPDEST PUSH2 0x81 PUSH2 0x1C5 JUMP JUMPDEST PUSH2 0xB8 PUSH1 0x4 DUP1 CALLDATASIZE SUB PUSH1 0x20 DUP2 LT ISZERO PUSH2 0xB1 JUMPI PUSH1 0x0 DUP1 REVERT JUMPDEST POP CALLDATALOAD PUSH2 0x1CB JUMP JUMPDEST PUSH1 0x40 DUP1 MLOAD PUSH1 0x1 PUSH1 0x1 PUSH1 0xA0 SHL SUB SWAP1 SWAP3 AND DUP3 MSTORE MLOAD SWAP1 DUP2 SWAP1 SUB PUSH1 0x20 ADD SWAP1 RETURN JUMPDEST PUSH1 0x0 DUP1 SLOAD PUSH1 0x1 DUP2 ADD DUP3 SSTORE SWAP1 DUP1 MSTORE PUSH32 0x290DECD9548B62A8D60345A988386FC84BA6BC95484008F6362F93160EF3E563 ADD DUP1 SLOAD PUSH1 0x1 PUSH1 0x1 PUSH1 0xA0 SHL SUB NOT AND CALLER OR SWAP1 SSTORE JUMP JUMPDEST JUMP JUMPDEST PUSH1 0x0 DUP1 PUSH1 0x2 PUSH1 0x0 SWAP1 SLOAD SWAP1 PUSH2 0x100 EXP SWAP1 DIV PUSH1 0x1 PUSH1 0x1 PUSH1 0xA0 SHL SUB AND PUSH1 0x1 PUSH1 0x1 PUSH1 0xA0 SHL SUB AND PUSH4 0xFEAF968C PUSH1 0x40 MLOAD DUP2 PUSH4 0xFFFFFFFF AND PUSH1 0xE0 SHL DUP2 MSTORE PUSH1 0x4 ADD PUSH1 0xA0 PUSH1 0x40 MLOAD DUP1 DUP4 SUB DUP2 DUP7 DUP1 EXTCODESIZE ISZERO DUP1 ISZERO PUSH2 0x168 JUMPI PUSH1 0x0 DUP1 REVERT JUMPDEST POP GAS STATICCALL ISZERO DUP1 ISZERO PUSH2 0x17C JUMPI RETURNDATASIZE PUSH1 0x0 DUP1 RETURNDATACOPY RETURNDATASIZE PUSH1 0x0 REVERT JUMPDEST POP POP POP POP PUSH1 0x40 MLOAD RETURNDATASIZE PUSH1 0xA0 DUP2 LT ISZERO PUSH2 0x192 JUMPI PUSH1 0x0 DUP1 REVERT JUMPDEST POP PUSH1 0x20 ADD MLOAD PUSH1 0x1 SLOAD SWAP1 SWAP2 POP PUSH5 0x2540BE400 DUP3 MUL SWAP1 PUSH1 0x0 SWAP1 DUP3 SWAP1 PUSH8 0xDE0B6B3A7640000 MUL DUP2 PUSH2 0x1BC JUMPI INVALID JUMPDEST DIV SWAP4 POP POP POP POP SWAP1 JUMP JUMPDEST PUSH1 0x1 SLOAD DUP2 JUMP JUMPDEST PUSH1 0x0 DUP2 DUP2 SLOAD DUP2 LT PUSH2 0x1D8 JUMPI INVALID JUMPDEST PUSH1 0x0 SWAP2 DUP3 MSTORE PUSH1 0x20 SWAP1 SWAP2 KECCAK256 ADD SLOAD PUSH1 0x1 PUSH1 0x1 PUSH1 0xA0 SHL SUB AND SWAP1 POP DUP2 JUMP INVALID LOG2 PUSH5 0x6970667358 0x22 SLT KECCAK256 EXP PUSH16 0xFC7B4167D0B702DF94C7A3A656C519BE JUMP 0xD7 JUMPDEST COINBASE ORIGIN 0x24 INVALID 0xCD MULMOD CREATE PUSH10 0x59889564736F6C634300 MOD 0xC STOP CALLER ",
  "sha1": "e9c532a308541e8dbd7489eaca96bee6c80158a8",
  "source": "// SPDX-License-Identifier: MIT\n\npragma solidity ^0.6.6;\n\nimport \"@chainlink/contracts/src/v0.6/interfaces/AggregatorV3Interface.sol\";\n\ncontract Lottery {\n    address payable[] public players;\n    uint256 public usdEntryFee;\n    AggregatorV3Interface internal ethUsdPriceFeed;\n\n    constructor(address _priceFeedAdress) public {\n        usdEntryFee = 50 * (10**18);\n        ethUsdPriceFeed = AggregatorV3Interface(_priceFeedAdress);\n    }\n\n    function Enter() public {\n        //giriş fiyatı belirleme\n        players.push(msg.sender);\n    }\n\n    function GetEntrenceFee() public view returns (uint256) {\n        (, int256 price, , , ) = ethUsdPriceFeed.latestRoundData();\n        uint256 adjustedPrice = uint256(price) * 10**10; // 18 decimals\n        // $50, $2,000 / ETH\n        // 50/2,000\n        // 50 * 100000 / 2000\n        uint256 costToEnter = (usdEntryFee * 10**18) / adjustedPrice;\n        return costToEnter;\n    }\n\n    function StartLottery() public {}\n\n    function EndLottery() public {}\n}\n",
  "sourcePath": "contracts/Lottery.sol",
  "type": "contract"
}